00COTAHIST.2024BOVESPA 20240628                                                                                                                                                                                                                      
012024062802BSLI3       010BRB BANCO   ON           R$  000000000095800000000009580000000000950000000000095500000000009500000000000922000000000095900002000000000000000300000000000000286600000000000000009999123100000010000000000000BRBSLIACNOR5194
012024062802BSLI4       010BRB BANCO   PN           R$  000000000102900000000010290000000001029000000000102900000000010290000000000942000000000103000001000000000000000100000000000000102900000000000000009999123100000010000000000000BRBSLIACNPR2194
012024062802CTKA4       010KARSTEN     PN           R$  000000000165000000000016500000000001650000000000165000000000016500000000001530000000000165000001000000000000000100000000000000165000000000000000009999123100000010000000000000BRCTKAACNPR7043
012024062802CURY3       010CURY S/A    ON      NM   R$  000000000206500000000020860000000002053000000000206800000000020600000000002060000000000207207553000000000001362800000000002819519000000000000000009999123100000010000000000000BRCURYACNOR3109
012024022796ZAMP3F      020ZAMP S.A.   ON           R$  000000000041000000000004270000000000410000000000041900000000004200000000000416000000000042000105000000000000002592000000000001088435000000000000009999123100000010000000000000BRZAMPACNOR5100
012024010212BBFI11B     010FII BB PROGRCI  ER  MB   R$  000000012449900000001244990000000118000000000012065100000001180000000000118000000000012000000073000000000000000111000000000013392295000000000000009999123100000010000000000000BRBBFICTF006322
012024052296BHIA12F     020CASAS BAHIA BNS ORD NM   R$  000000000000100000000000020000000000001000000000000100000000000010000000000000000000000000100025000000000000000404000000000000000405000000000000009999123100000010000000000000BRBHIAN01OR5100
012024011178SOMAA700    070SOMA        ON      NM000R$  000000000009500000000001000000000000095000000000009700000000001000000000000030000000000011800002000000000000025000000000000002435000000000000070002024011900000010000000000000BRSOMAACNOR3102
012024011178TAEEA320    070TAEE    /ED UNT     N2000R$  000000000062700000000006270000000000627000000000062700000000006270000000000000000000000000000001000000000000002300000000000001442100000000000308302024011900000010000000000000BRTAEECDAM10143
012024011162TEND3T      030TENDA       ON      NM018R$  000000000110500000000011060000000001051000000000106800000000010520000000000000000000000000000010000000000000016800000000000017955400000000000000009999123100000010000000000000BRTENDACNOR4111
012024052702SOMA3       010GRUPO SOMA  ON      NM   R$  000000000060700000000006180000000000603000000000060800000000006030000000000603000000000060513238000000000007596500000000004622619700000000000000009999123100000010000000000000BRSOMAACNOR3102
012024052702ZAMP3       010ZAMP S.A.   ON           R$  000000000029900000000003020000000000296000000000029800000000002990000000000299000000000030101346000000000000848800000000000253576800000000000000009999123100000010000000000000BRZAMPACNOR5100
012024052702SYNE3       010SYN PROP TECON      NM   R$  000000000093000000000009320000000000917000000000092400000000009320000000000925000000000093200426000000000000109900000000000101601000000000000000009999123100000010000000000000BRSYNEACNOR2102
012024052702SRNA3       010SERENA      ON      NM   R$  000000000092400000000009280000000000913000000000092000000000009180000000000917000000000092503271000000000000562100000000000517306600000000000000009999123100000010000000000000BRSRNAACNOR4100
012024050302ZAMP3       010ZAMP S.A.   ON           R$  000000000039000000000004080000000000383000000000039200000000003900000000000389000000000039007296000000000004664400000000001830751500000000000000009999123100000010000000000000BRZAMPACNOR5100
012024050396ZAMP3F      020ZAMP S.A.   ON           R$  000000000039200000000004060000000000385000000000039500000000003950000000000394000000000040500148000000000000004000000000000001580170000000000000009999123100000010000000000000BRZAMPACNOR5100
012024051096ZAMP3F      020ZAMP S.A.   ON           R$  000000000033100000000003440000000000331000000000033600000000003420000000000330000000000034200049000000000000001025000000000000345067000000000000009999123100000010000000000000BRZAMPACNOR5100
012024052796ZAMP3F      020ZAMP S.A.   ON           R$  000000000030800000000003080000000000296000000000029800000000002980000000000298000000000030400078000000000000001164000000000000347307000000000000009999123100000010000000000000BRZAMPACNOR5100
012024010202BMKS3       010BIC MONARK  ON           R$  000000003599800000000359980000000035097000000003597100000000359970000000035000000000003599700011000000000000000050000000000001798580000000000000009999123100000010000000000000BRBMKSACNOR9165 
